:020000040000FA
:10000000085BF62FD5010000230200002502000046
:1000100000000000000000000000000000000000E0
:100020000000000000000000000000002D020000A1
:100030000000000000000000310200003302000058
:10004000000000003502000035020000350200000B
:1000500035020000350200003502000035020000C4
:100060003502000035020000350200009D15000039
:1000700035020000350200003502000035020000A4
:100080003502000035020000350200003502000094
:100090003502000035020000350200003502000084
:1000A0003502000035020000350200003502000074
:1000B0003502000035020000350200003502000064
:1000C0003502000035020000350200003502000054
:1000D0003502000035020000350200003502000044
:1000E0003502000035020000350200003502000034
:1000F0003502000035020000350200003502000024
:100100003502000035020000350200003502000013
:100110003502000035020000350200003502000003
:1001200035020000350200003502000035020000F3
:1001300035020000350200003502000035020000E3
:100140000000285128514143746F73404163746922
:100150006F6E73000000534420446570742E0000DD
:100160000000000000000000000000004142504379
:1001700048474F444A4B4D4C49464E45000000000D
:100180000911222023194100512C000001200000F8
:100190001D220000911A0000CD54000091190000AA
:1001A0002102000064680000B52F0000512F0000FC
:1001B000312F0000D932000091230000695900005E
:1001C0004D2D0000D93B0000312C00008D1C00009B
:1001D000D90B000018484FF00001016017484FF09C
:1001E0001D01016016480268D1B2B52910D122F074
:1001F000FF02026013490A68134B9A4208D3134B5B
:100200009A4205D212F0010F02D000230B60104772
:100210000F4885460F484FF0000101600E48004727
:100220000847FEE7FEE7FEE7FEE7FEE7FEE7FEE73C
:10023000FEE7FEE7FEE7FEE70010004020C00040BA
:1002400044C0004040C000400000F62F0000FC2FDA
:10025000F0FFF62F08ED00E0A92E000000487047DF
:10026000AC5C0000A0F16101192900D8203870476A
:1002700040EA01039B0703D009E008C9121F08C028
:10028000042AFAD203E011F8013B00F8013B521EA8
:10029000F9D27047D2B201E000F8012B491EFBD21F
:1002A00070470022F6E710B513460A460446194681
:1002B000FFF7F0FF204610BD80B50F200621C4F2E5
:1002C000050000BF90F879200139FBD1B0F8791012
:1002D00061B140F22812C2F6F67202F2331200BF88
:1002E00012F8013F013980F87530F9D1017841F0F9
:1002F0000201017043F68001C0F2010102E000BF7B
:10030000013905D002789207FAD402781207F7D59E
:10031000017941F00201017100F0E4FE02F02AF8D7
:1003200080BD000080B580688047D0E9001040F2B1
:10033000C402C2F6F672C2E90410002000F008FF01
:10034000002080BD002070470020704700207047CB
:10035000F0B581B0B1B1054646F66400C0F20000C8
:10036000C7690C462646B4F5002F28BF4FF4002677
:10037000002029463246B847A41B354402F080FFCE
:10038000002CEFD1002001B0F0BD000010B540F20C
:10039000C401C2F6F671CA6A52B1D0E9011093697C
:1003A000002200249847002000F0D2FE204610BD15
:1003B0000224204610BD00000120704780B54FEA9E
:1003C000502C46F61000036840F2B4004A0AC2F608
:1003D000F67061469847002818BF012080BD0000D4
:1003E00010B54488002000F0B3FE012C1CBF06208D
:1003F00010BD40F20000C2F6F670806848F200417D
:10040000C4F20601086002F043FF00BFFEE70000EF
:1004100080B546F66400C0F20000016800208847FD
:10042000C0B280BD10B54088C1B202291BD845F6C4
:10043000CC4245F6B043C0F20002C0F200030129ED
:1004400008BF134645F6E842C0F20002002918BF73
:100450001A4640F2C4041168C2F6F674E262884794
:1004600018B1012407E0012405E0E06A0021C26818
:10047000002000249047204600F06AFE204610BD70
:1004800080B501F0B7FA02F081F8002804BF00201F
:1004900080BD01F0CFFA012080BD00002DE9F041C0
:1004A000C4B240F2B40840F6F020C2F6F678C2F6C4
:1004B000F6704FF46051C8F80C00FFF7F2FE48F2F6
:1004C0000000C0F20010C8F80800204605F088FBC4
:1004D00046F6BC0146F69800C0F20001042700264B
:1004E00046F60405C0F20000002C08BF014608BF14
:1004F0000327C8F8001004E003F0B0FF0136B7424C
:1005000012D0304614B103F073FE01E003F082FF15
:100510002968404688470130012805D83046002C1C
:10052000EAD003F0A1FEE9E7BE4204BF0120BDE826
:10053000F0814FF4D040016840F2B400C2F6F6708A
:100540008847002818BF0120BDE8F08110B582B0AF
:1005500040F2C401C2F6F671C96A446811B18868F4
:10056000804701E04FF0FF30019001A821464FF491
:10057000006205F061F8002002B010BDF0B581B056
:10058000D0E9014505F06040B0F1005F0BD128468D
:1005900021464FF4006205F04FF8201A18BF0120E1
:1005A000400001B0F0BDCCB140F2A826C2F6F6760C
:1005B0004FF40067B4F5006F38BF27463046294630
:1005C0003A46FFF755FE304639464FF4006205F0D3
:1005D00033F8874205D1E41B3D44E9D1002001B046
:1005E000F0BD022001B0F0BD80B513460A4646F6C4
:1005F0006401C0F20001D1F814C001460020E047B8
:10060000002080BD80B546F66400C0F2000081681D
:100610000020884780BD00002DE9F047446874B38E
:10062000B0F80280856840F2C40940F2A82AC2F6F8
:10063000F679C2F6F67A00BF02F022FED9F82C0055
:10064000B4F5006F4FF4006738BF2746002804BF99
:100650000320BDE8F0870669284651463A464346DE
:10066000B047504639464FF4006204F0E5FF874238
:100670001CBF0220BDE8F087E41B3D44DCD1002014
:10068000BDE8F08780B50B4602F2FF11400A490A27
:100690001A4601F0FDF9002818BF012080BD0000B6
:1006A00044F26750C0F223107047000080B58C46BA
:1006B000410A46F60800D0F800E040F2B400530AC0
:1006C000C2F6F6706246F047002818BF012080BDD0
:1006D00080B546F60400016840F2B400C2F6F67038
:1006E000884780BD10B540F2C401C2F6F671446877
:1006F000D1E90402944288BF144621464FF40062B7
:1007000004F09AFF201A18BF0120400010BD00001D
:1007100010B50446002000F01BFDA06840F2C401A3
:10072000C2F6F671C861FF2200204A7610BD0000B3
:10073000B0B54568448840F2A820C2F6F670294654
:100740004FF4006204F014FF85424FF003050DD111
:1007500040F2C400C2F6F670C06A38B1C26840F216
:10076000A821C2F6F671204690470025284600F0E1
:10077000EFFC2846B0BD0000F0B581B0D0E90145DE
:1007800005F06040B0F1005F09D1284621464FF4E2
:10079000006204F0EDFE201A18BF03201FE0DCB158
:1007A00040F2A826C2F6F6764FF40067B4F5006F63
:1007B00038BF2746304639464FF4006204F0D8FE71
:1007C00087420BD1284631463A46FFF751FDE41BDC
:1007D0003D44E9D1002002E0002000E00320C4B243
:1007E000204600F0B5FC204601B0F0BD80B51346B0
:1007F0000A4646F66401C0F20001D1F818C001466D
:100800000020E047002080BD2DE9F04746685EB338
:10081000B0F80280856840F2A82940F2C40AC2F606
:10082000F679C2F6F67A00BF02F02AFD4FF40067AF
:10083000B6F5006F38BF3746484639464FF4006278
:1008400004F096FE87424FF003040ED1DAF82C0034
:1008500058B14469284649463A464346A047F61BE4
:100860003D44E1D1002400E00024204600F070FC6B
:100870002046BDE8F087000080B50B4602F2FF116C
:10088000400A490A1A4601F001FA002818BF01205F
:1008900080BD000080B58C46410A46F60C00D0F8B9
:1008A00000E040F2B400530AC2F6F6706246F04728
:1008B000002818BF012080BD2DE9F04740F6A8228E
:1008C0000F25C2F6F672C4F2050592F91C702B7959
:1008D00040F2A81843F00203C4F205082B7198F8FF
:1008E0005832002F43F0800388F8583240F2014319
:1008F000C4F205031E78814646F004061E70126895
:10090000B1FBF2F303FB12145CD44CF20416222068
:100910008A42C4F2010688F8000028D803FB02F7D7
:100920000121384600224FF0010A01F0B1FE05F125
:100930007900C6F80C9070608420776146F8040C4A
:100940003046012100224FF4FA73C6F800A005F0EA
:1009500051F848B140F20000C2F6F67090F86C1001
:1009600041F0040180F86C1002F08AFCB944002CBC
:1009700000F0928020461121002201F089FE05F14D
:100980007900C6F80C9070608420C0F22200746177
:1009900046F8040C012030603046012100224FF45B
:1009A000FA7305F027F848B140F20000C2F6F6707D
:1009B00090F86C1041F0080180F86C1002F060FCB7
:1009C00002206CE04CF2041631208A42C4F2010687
:1009D00088F8000029D803FB02F7012138460122DC
:1009E0004FF0010A01F054FE05F17500F0604FF47C
:1009F0000440C6F80490776146F8040C30460121A3
:100A000000224FF4FA73C6F800A004F0F3FF48B1D7
:100A100040F20000C2F6F67090F86C1041F0400110
:100A200080F86C1002F02CFCB94434B3204611213C
:100A30000122012701F02CFE05F17500F06048F25B
:100A40000040C0F22200C6F80490746146F8040C1D
:100A50003046012100224FF4FA73376004F0CAFFD8
:100A600048B140F20000C2F6F67090F86C1041F008
:100A7000800180F86C1002F003FC43F68000C0F2A5
:100A8000010001E0013809D029788907FAD42978D2
:100A90000907F7D5112002E0022000E0112088F8B4
:100AA000000000F01FFB01F065FCBDE8F0870000CE
:100AB0002DE9F047002A04BF0020BDE8F087174663
:100AC0000D4602F067F844F2003980464FF0000A04
:100AD000C2F6F679002600BF3C46B7F5006F94BF1A
:100AE00001264FF4006404F005FBD8F810C0284636
:100AF000494622460023E04704F0FCFA04F0FAFAE3
:100B0000F3B248462146524601F042FC824604F0C8
:100B1000F1FA3F1B2544DFD15046BDE8F0870000C5
:100B200080B540F6D020C2F6F670816944F2F42018
:100B3000C2F6F6708847B0F1FF3F05DC40F6A8200A
:100B4000C2F6F670FF21817204F018FE00F0E0FE9C
:100B500080BD00007047000040F20040C4F2050074
:100B60009921017040F6A820C2F6F6707721017233
:100B70007047000080B540F28C10C4F20500892156
:100B800080F874120121017002F04EFB80BD00005C
:100B900070B58826C4F2050602F072FB306845F293
:100BA0005531C4F2423188420FD1042435782146B0
:100BB000284600F085FE0134102CF7D1CC2D07D04B
:100BC000CD2D02D100F070F870BD02F003FB70BDB6
:100BD000FFF772FB70BD00002DE9F04F81B041F2CC
:100BE000040544F20404C4F20005C4F20004D5F87C
:100BF00000B0D4F810A0D4F800802A68814642F0F2
:100C000000422A604FF040221268009111010AD47C
:100C1000206840F6090120F4E04020602069084384
:100C200020F00600206148F20006C4F20006706859
:100C300020F400507060706840F4804070601420B0
:100C400004F07EFD306840F0040030600A2004F0BB
:100C500077FD3046012101220A23012704F0CAFE54
:100C6000C0B947F25830C2F2466030610120012716
:100C700004F066FD3068B9F11F0F0BD810F00200C8
:100C800008D006F1100050F82900009900270860EC
:100C900001203061C5F800B0C4F800803846C4F8BF
:100CA00010A001B0BDE8F08F70B58824C4F205042F
:100CB000207840F6A825C2F6F6751021287700F0B6
:100CC0007F0600F0FDFD202E0BD0132E0CD12078D6
:100CD00020782078216869612068A861FFF7ECFD21
:100CE00070BD00F047FA70BD00F0F2FD70BD00006D
:100CF00080B540F6D020C2F6F670007C00F07F0090
:100D00001038322821D8DFE800F01D2020202326CB
:100D1000291A2C202020202020202020202F2020B5
:100D200020202020202020202020322020202020B1
:100D30002020202020202020202020351A0002F012
:100D4000AFFA80BD00F082F880BD02F061FA80BD8C
:100D500001F02EFF80BD03F0E1F880BD01F03AFB09
:100D600080BD01F0EBFE80BD00F008F880BD04F00E
:100D7000DBFD80BD03F0B8F880BD000080B540F613
:100D8000D020C2F6F670416944F2F420C2F6F67043
:100D9000006804F057FD04F0F1FC00F0B9FD80BDDF
:100DA000F0B5C9B00646B2F5807F4FF0000003D120
:100DB000002E18BF002901D149B0F0BD1D46002BFF
:100DC000FAD04E9F002FF7D009AC20464FF4807226
:100DD000FFF74EFA3046214602F0F6F801AE2846FB
:100DE0003946324602F0F8FEDF2000BF31182218E3
:100DF00011F8DF1C537801305940FF285170F5D1AC
:100E000020464FF48071224602F0E6FE002007A142
:100E1000225C0B5C9A4205D101302028F8D10120D8
:100E200049B0F0BD002049B0F0BD00BFAB288D8AAD
:100E3000D7D95992BACCF86720E1152E398D803672
:100E4000D66FF0FD90E87D8BE17C875970B540F658
:100E5000D020C2F6F670D0E9054190F91060B1F1EA
:100E60007F4F18D314B344F20035C2F6F6750BE089
:100E700028464FF40071FFF714FA28464FF400712A
:100E800004F0E0FC013C11D0002EF1D44FF40070CE
:100E900004F092FCF6E7407C002E21F07F412246D0
:100EA00002D400F061F801E000F006F804F066FCFE
:100EB00000F02EFD70BD00002DE9F04791468846F8
:100EC00001F068FE70B18246B9F1040F12D244F20B
:100ED0000035DAF810704FEA4924C2F6F6754FEA89
:100EE000482036E040F6A820C2F6F670FF21817255
:100EF000BDE8F08701D100211BE044F200354FEA44
:100F000048270024C2F6F675DAF8106038462946FC
:100F10004FF400620023B04728464FF4006104F00C
:100F200091FC211D04F1080007F5006748450C46B7
:100F3000EAD3494528BFBDE8F08701EB0800A9EBDB
:100F4000010144F20035DAF810704C02C2F6F67571
:100F50004002294622460023B8472846214604F08D
:100F600071FCBDE8F08700002DE9F04F83B0164614
:100F70000D4601F00FFED8B382464069C0B344F27B
:100F8000FC20C2F6F67000784FF40067002808BF16
:100F90004FF480774FF0040908BF4FF00109042E89
:100FA0002FD27402204604F007FCA9F10100304260
:100FB00011D044F20030791EC2F6F6702140204470
:100FC000791AFF22FFF766F909EB06000138C9F12B
:100FD000000100EA0106DAF8147044F200316802F8
:100FE0007202C2F6F6710023B84703B0BDE8F08F75
:100FF00040F6A820C2F6F670FF21817203B0BDE86A
:10100000F08FCDE9017502D14FF000081BE044F2EA
:10101000003B6F020024C2F6F67B00BF4FF4006075
:1010200004F0CAFBDAF81450384659464FF400620F
:101030000023A84704F1040804F1080007F500673D
:10104000B0424446EAD3B04528D2A6EB08077E0258
:10105000304604F0B1FBA9F10100074212D0019A19
:1010600044F20030511EC2F6F67031403044511A3D
:10107000FF22FFF70FF909EB07000138C9F1000162
:1010800000EA01070298DAF81460404444F20031A3
:1010900040027A02C2F6F6710023B04703B0BDE801
:1010A000F08F000080B5416845F68470C0F2000002
:1010B0004FF40062022928BF022104F0BDFA00208B
:1010C00080BD000080B5416845F64C70C0F200005C
:1010D0004FF40062182928BF182104F0ADFA00204F
:1010E00080BD0000B0B540F6A820C2F6F67084249A
:1010F000827A45F25531C4F20504C5F242312160CD
:101100000021FF2A2160216001D0217002E002222B
:101110002270817202F0B4F814F8750C43F6800561
:1011200040F00200C0F2010504F8750C09E000BFB0
:1011300014F8750C000748BFB0BD02F0A1F8013DDE
:1011400004D014F8750C8007F2D5F6E7B0BD0000A6
:1011500080B582B0AA21ADF8041000218DF80610E8
:101160008DF8070001A804214FF4006204F064FA2E
:1011700002B080BD80B513200721C4F2050000BF76
:1011800090F875200139FBD1D0F8751040F6A822EF
:10119000C2F6F6725160FF215172017841F00201EE
:1011A0000170FFF79FFF01F0E5F880BD48F20C00E9
:1011B000C4F20300012101607047000048F20C00F6
:1011C000C4F20300022101607047000070B548F6C8
:1011D0008051C0F25B01884284BF022070BD48F29A
:1011E0001004C4F2030443F200612268C0F26E11DD
:1011F000B1FBF0F590B2854204BF002070BD00BF86
:1012000000F034F90028FBD040F2C406C2F6F676AE
:1012100096F82000012804D1002000F0BBF800F06F
:10122000D5F8002000F08CF800F0A6F845EA05405B
:10123000206096F82000012804BF012000F0AAF8E1
:10124000012000F07DF8002070BD000048F2000091
:10125000C4F20300016821F480210160704700009E
:1012600048F20000C4F20300016821F4002101608B
:101270007047000048F20000C4F20300016841F426
:10128000802101607047000048F20000C4F20300B2
:10129000016841F4002101607047000048F20C0031
:1012A000C4F203000068C0F3C42070472DE9F04188
:1012B0000C4605462AB14FF47A7002FB00F004F0A8
:1012C00063FB40F2C400C2F6F670007E48F20406EA
:1012D000C4F2030620B148F2A068C0F201080FE092
:1012E000F06881B2890011FA80F04AF6AB21400023
:1012F000CAF6AA21A0FB01016FF0030000EA9108E1
:10130000002764B93846BDE8F08100BF3068002D81
:1013100018BFE85501F0B0F90137BC420BD001F01D
:1013200061FC0028F2D1404604F02EFB01F05AFC8B
:101330000028EBD1E6E727463846BDE8F0810000FB
:1013400081B048F20001C4F203010A68002822F0CB
:1013500000424FF0000018BF02F100420A60009006
:101360000098092806DC00BF009801300090009822
:101370000A28F9DB01B0704748F20000C4F203000C
:10138000016821F080510160016841F080510160E5
:101390007047000081B048F20001C4F203010A68FE
:1013A000002822F080424FF0000018BF02F1804276
:1013B0000A6000900098092806DC00BF0098013000
:1013C000009000980A28F9DB01B0704748F200004D
:1013D000C4F20300016821F000510160016841F08E
:1013E000005101607047000040F2C400C2F6F67080
:1013F0000021816248F20001C4F2030108684FF243
:10140000FF32C6F6FA421040086015220020CA607A
:101410007047000070B548F200060C460546C4F25D
:10142000030604F02BF930684FF6FF71C6F6FA4157
:10143000084040F08071EA0718BF41F4843048F258
:101440000301C9F20001084330601520A907F060CC
:1014500009D544B1306840F48020306040F2C400C7
:10146000C2F6F6708462002070BD000048F20C00E5
:10147000C4F203000068012121EA505070470000C7
:1014800040F2C400C2F6F6700021416248F2000149
:10149000C4F2030108684FF6FF42C9F2F53210406A
:1014A00008600A220020CA6070470000B0B50546F7
:1014B00001200C4604F044F904F004F948F200005D
:1014C000C4F2030001684FF68C42C9F2F5321140B4
:1014D00065F3492165F3514148F2030265F39A61CE
:1014E000C6F20002114301600A21AA07C1600BD5B0
:1014F00054B1016841F4002141F44071016040F2AF
:10150000C400C2F6F67044620020B0BDF0B581B0F0
:1015100040F2C407C2F6F677154697F820200C462D
:10152000064632B900200021FFF7C0FF012087F8EE
:10153000200048F20C00C4F203009CB1002100BF5F
:1015400002685206FCD4725C0131A14240F8042CBE
:10155000F6D1A90703D500BF01688902FCD4204653
:1015600001B0F0BD0024A907F9D5F5E740F28C10D1
:10157000C4F20500892180F874121021017040F630
:10158000A820C2F6F6704FF48031C0F80A104FF070
:101590000111C0F80E1001214182704780B501F0A1
:1015A0006FFE40F20140C4F205000078400712D4FB
:1015B00040F28C10C4F205000178C90710D10178FF
:1015C000C90612D490F87402C00648BFFFF7C4FAE7
:1015D00001F056FE80BDFFF7DBFA01F051FE80BD41
:1015E000FFF7C8FA01F04CFE80BDFFF7BFFF01F026
:1015F00047FE80BD80B540F2C401C2F6F6711022EC
:101600004FF4006303F082FE103818BF012080BD44
:1016100040F2C4020021C2F6F67200201176704733
:1016200080B500F093F840F2C402C2F6F67210885A
:1016300068B10021118045F66472C0F2000200BF5B
:1016400032F81130984204D001311029F8D1052028
:1016500080BD45F68870C0F2000050F8211040F2BD
:10166000C400C2F6F670884780BD000010B540F295
:10167000C404C2F6F674217E09B1002010BD2D21EC
:10168000022808BFC821012808BF42F6F8210846F1
:1016900004F020F818B1082003F02AFF10B14FF031
:1016A000FF3010BD01202076002010BD80B582B033
:1016B00041F2F550C0F2000001909DF801000821B0
:1016C00061F31F108DF8010001208DF800006846BD
:1016D000012103F0B3FE02B080BD000070B5FFF73A
:1016E000E5FFFFF79DFF0446062813D040F2C4052E
:1016F000C2F6F675002605E001F0C2FDFFF790FF87
:10170000062806D0687EFF28F6D1E8696E76804705
:10171000F2E7044600F002F8204670BD80B582B0C2
:1017200041F2F550C0F2000001909DF8010008213F
:1017300061F31F108DF8010001208DF8000068464C
:10174000012103F09FFE02B080BD000080B582B091
:1017500040F2C400C2F6F670C36C0DF1070001211F
:101760000022984760B19DF80700162808D801218B
:1017700022228140C0F24002114218BF03F01CFF38
:1017800002B080BD80B501F07BFD40F2281045F627
:101790000451C2F6F670C0F200014FF4A472FEF7D5
:1017A00067FD80BD002A08BF7047C2F12003002BEF
:1017B00005DD00FA03F3D140D04019437047A2F190
:1017C000200120FA01F100207047000080B5112AA5
:1017D00004DB036913B102F0F9FE80BD02F0C6FE1E
:1017E00080BD000080B582B08DF807100DF10701B3
:1017F000012200F003F802B080BD000080B5112A7C
:1018000004DB036913B103F00FF880BD02F0DAFFC7
:1018100080BD000010B540F6A821C2F6F671096837
:1018200000291CBF002010BD044603F063FC041B0C
:1018300001F0C8F90021844228BF0121084610BDEB
:1018400080B541F20400C4F20000016840F20002D9
:10185000C2F6F6721160D0F8B010D165D0F8C000B1
:10186000282110664FF080400068506040F6A820A4
:10187000C2F6F670FEF715FD01F0AAFA80BD000071
:1018800080B50B2001F03EF80B2000F0E5FE40F2A1
:101890000000C2F6F670016841F20402C4F20002D0
:1018A0001160C16DC2F8B010016EC2F8C01040687E
:1018B0004FF08041086080BD80B500F069F880BDC0
:1018C0001E299EBF40F6D022C2F6F67250547047D1
:1018D00080B503F05BFF40F6D020C2F6F670C07B07
:1018E00044F600320021C2F6F672B02811800AD008
:1018F000CC2808BF80BDCD2802D1FFF7F9F980BD03
:1019000001F086FC80BD03F039FF00F001F880BDD6
:1019100080B5FFF7E7FB40F20040C4F20500017814
:1019200041F08001017040F20141C4F205010A78E2
:1019300042F004020A704FF6A851CFF6FF7102225E
:10194000425444F60030C2F6F6700021018080BD9A
:1019500080F31188BFF36F8F7047000080F3118808
:10196000BFF36F8F704700004FF02001EFF311803D
:1019700081F31188BFF36F8F704700004FF0200193
:10198000EFF3118081F31188BFF36F8F7047000070
:1019900070B5FFF755FF03F0E9FEFFF7F3FE01F026
:1019A000AFFF03F0A7FB0446FFF734FF10B1FFF7CA
:1019B00067FF70BD40F6A82540F20006C2F6F67536
:1019C000C2F6F67607E000BF01F05AFC2046FFF7AA
:1019D00021FF0028EBD1687AFF28F5D103F08AFBBC
:1019E0006968706641F00101052000226960FEF718
:1019F00017FCE9E741F20400C4F20000016840F27C
:101A00000002C2F6F67211604FF080410968516021
:101A100048F20001C4F206010B68D3614B681362FF
:101A200089685162C1689161016841F001010160FA
:101A30007047000080B500F0BBFD0220002101F0DE
:101A40006FFB40F20000C2F6F670016841F204023A
:101A5000C4F20002116041684FF080431960806950
:101A6000D06080BD80B582B0FFF7C4FF00F08EFD6E
:101A700048B901A8694600F097F820B9DDE90021CE
:101A80000320FEF7CDFBFFF7D5FF02B080BD0000BD
:101A90002DE9F04744F20404C4F205040F4654F85B
:101AA000045C06464CF2041A022000219046C4F25F
:101AB000010A4FF0000901F043FB40F2740044F8C2
:101AC000045CC2F6F6704FF400730168D0E902209E
:101AD000A362E76254F8043C090623F0004344F88B
:101AE000043C54F8043C58BF76027F0243EAC070BD
:101AF000802140F0400044F8040C1220E660A06011
:101B000042F0C400206085204AF8040C04F124004F
:101B1000CAF80400CAF80C80CAF81470DAF8000099
:101B2000002240F00100CAF8000020464FF47A730A
:101B300003F060FF28B120684FF0010920F0800019
:101B400020605046012100224FF47A7303F052FFC7
:101B500038B1DAF800004FF0010920F00100CAF8AE
:101B60000000B9F1000F08D1606848F2170108427F
:101B70000BD0206820F0800020600C200021032280
:101B800001F010FF0120BDE8F0870C2000210322A6
:101B9000002501F007FF20B12068012520F080001A
:101BA00020602846BDE8F0872DE9F04FADF5037DB4
:101BB00040F2740AC2F6F67ADAF810200291C2F303
:101BC000C0314CF2200B45F6C879C4F2000B4FF03F
:101BD0000008C0F2000903AE0190CAF80C100AE038
:101BE0002046012101F034F8002844D008F1010812
:101BF000B8F1030F37D0DBF8000059F8287040F037
:101C00000100CBF80000384601213246FFF740FFC3
:101C1000DAF81000B0F1FF3F04DC30464FF40071F9
:101C200000F00AFE304601F031F80028DED10998B4
:101C3000BDF83010BDF832200844BDF8341010440F
:101C4000059C451805F2FF10410A38462246FFF769
:101C50001FFFDAF81000B0F1FF3FC1DC2046294633
:101C600000F0EAFDBCE70020CAF80C0001200DF5E9
:101C7000037DBDE8F08F089801990860029807601D
:101C800000200DF5037DBDE8F08F00002DE9F04741
:101C900044F2040AC4F2050A0F465AF8044C0646F8
:101CA0004CF20415022000219046C4F201054FF0C9
:101CB000000901F045FA40F274004AF8044CC2F6FB
:101CC000F6704FF400730168D0E90220CAF828309A
:101CD000CAF82C705AF8043C090623F000434AF86D
:101CE000043C5AF8043C58BF76027F0243EAC070B5
:101CF000012140F040004AF8040C1920CAF80C6099
:101D0000CAF8080042F08500CAF800004FF4054008
:101D100045F8040C0AF12400C5F80480E8606F61FE
:101D20002868002240F00100286028464FF47A73AA
:101D300003F060FE28B128684FF0010920F001008F
:101D400028605046802100224FF47A7303F052FE3F
:101D500038B1DAF800004FF0010920F08000CAF82D
:101D60000000B9F1000F0BD1DAF8040048F21701B6
:101D700008420DD0DAF8000020F08000CAF8000018
:101D80000C200021032201F00DFE0120BDE8F087A8
:101D90000C2000210322002501F004FE30B1DAF806
:101DA0000000012520F08000CAF800002846BDE8A8
:101DB000F08700002DE9F047ADF5007D40F2000905
:101DC000C2F6F679D9F84C608846824601F058FA96
:101DD0006A4630464FF4007100F012F940F2740583
:101DE000C2F6F6752869B0F1FF3F04DC68464FF48F
:101DF000007100F021FD9DF83700552805D1684697
:101E000000F044FF38B1012600E0012630460DF510
:101E1000007DBDE8F0870698BDF82410BDF82620A7
:101E20000844BDF828101044029F4418304621464B
:101E30003A4600F0E5F82869B0F1FF3F03DC384688
:101E4000214600F0F9FC38460121012600F000FF90
:101E50000028DBD105980026CAF80000D9F84C000C
:101E6000C8F80000D2E7000048F20010C4F20600F3
:101E70001F2101607047000080B540F2001146F656
:101E80007560C4F20001C0F2C840086040F214203E
:101E9000C8F21000486041F20400C4F200000323BD
:101EA00048F20042C0F8CC30C4F20602C0F8D0308C
:101EB0001368B3F1FF3F03DC136823F010031360D2
:101EC0000122C1F8002F4FF0FF31C0F8AC10C0F86C
:101ED000B0100021C0F8BC10C0F8C010016841F07B
:101EE000010101604FF08040016841F00101016093
:101EF00040F2000040F28801C2F6F670C2F6F671B8
:101F0000091AFEF7CEF940F2C40040F6D021C2F61D
:101F1000F670C2F6F671091AFEF7C3F940F28800AE
:101F200040F2C401C2F6F670C2F6F6710A1A46F61D
:101F3000F801C0F20001FEF79BF901F0A1F980BDA4
:101F40002DE9F047ADF5007D40F20005C2F6F675CB
:101F500088468146D5E915010322002808BF0222E0
:101F600001FA02F601F08CF96A463046012100F0D0
:101F700055F940F27404C2F6F6742069B0F1FF3FDF
:101F800004DC68464FF4007100F056FC9DF8370001
:101F9000AA2805D1684600F079FE38B1012600E094
:101FA000012630460DF5007DBDE8F0870698BDF8A6
:101FB0002410BDF826200844BDF828101044029FC4
:101FC00000EB010A0AF2FF10410A30463A4600F0DF
:101FD00025F92069B0F1FF3F03DC3846514600F097
:101FE0002BFC38460121012600F032FE0028D8D112
:101FF00005980026C9F80000A86DC8F80000D0E7D1
:1020000070B501F2FF110023B3EB512F0FD014462E
:1020100005464E0A28464FF400712246002300F080
:10202000C9FC04F50074013E05F50075F2D10020ED
:1020300070BD000010B541F20400C4F20000016858
:1020400040F20004C2F6F6742160C06960614FF08E
:1020500080400068606002F0A1F902F09DF848F24B
:102060001800C4F206004FF4C05101604160002026
:10207000C4E9110010BD000080B502F0ADF940F2D6
:102080000000C2F6F67041684FF08042116041696D
:1020900041F20402C4F20002D1610068106080BD08
:1020A0002DE9F04F85B040F27400C2F6F670006979
:1020B00000F40046FFF7BEFF40F200070FF23C19A4
:1020C0000DF1100B03AD4FF0010AC2F6F6770024B4
:1020D00009E000BF786C02F0C1F9786C013401307E
:1020E000032C786426D0786C02F094F901F0EEFFAE
:1020F000002001F0A3FF0028ECD14FF0000804E01D
:1021000008F10108B8F1040FE4D059F82800002EB6
:10211000F86412BFC7F848A00020B86458462946A2
:10212000FFF748FE0028EBD1DDE903210120FEF78F
:1021300077F8E5E74FF0402001684FF0010941F4DE
:102140000041016000200FF2C40A04AC02AD00217E
:10215000786409E0786C02F081F90099786C0131BB
:1021600001300329786443D0786C009102F052F971
:1021700001F056FF012001F061FF0028EAD10020A4
:102180000021386507E000BF0199386D0131013049
:1021900002293865DED000204FF0000B01917865F0
:1021A00008E000BF786D0BF1010B0130BBF1020FAD
:1021B0007865E9D04FF0000805E000BF08F101089C
:1021C000B8F1040FEED05AF82800002EB86512BFFF
:1021D000C7F848900020B86420462946FFF7B0FEB3
:1021E0000028EBD10499029A0220FEF719F8E5E7DE
:1021F000FFF742FF05B0BDE8F08F00BF0000000010
:10220000001000000020000000000100000000009D
:102210008000000000010000000200002DE9F043F2
:1022200081B039B340F2000914460D460646470214
:10223000C2F6F679D9F854004FF4606100284FF0E7
:10224000030008BF022008BF4FF4C06126FA00F067
:1022500001EA070800F07EFF40464FF40071224675
:10226000012300F0A7FB04F500740136013D07F5DA
:102270000077DFD1002001B0BDE8F083B0B582B0B7
:10228000FFF7D8FE40F20004C2F6F6740220606444
:10229000022002F0BFF801F019FF0020002501F034
:1022A000CDFE58B901A86946C4E91255FFF782FD71
:1022B00020B9DDE900210120FDF7B2FFFFF7DCFEC8
:1022C00002B0B0BD70B541F20405C4F20005286843
:1022D00040F20001C2F6F67108604FF080442068B9
:1022E00048F20046C4F206064860306888604FF63F
:1022F0007040CFF6FF703058C8604FF67440CFF68C
:10230000FF703058086140F2C400C2F6F6706421D4
:10231000FDF7C7FF02F018FF3068800703D130686F
:1023200040F001003060286840F08070286020682C
:1023300020F080702060206840F08070206070BDC8
:1023400040F20000C2F6F670016841F20402C4F2E5
:102350000002116041684FF080421160C16848F28C
:102360007002C4F206021160016951608068C2F80F
:102370009003704740F20040C4F20500017841F03C
:1023800080010170417841F0040141707047000004
:1023900010B56FEA020EC9B146F6240C0138C0F23E
:1023A000000C00BF10F8014F01398EEA040202F060
:1023B0000F025CF8222082EA1E1202F00F0383EA69
:1023C00014135CF8233083EA121EEBD16FEA0E007F
:1023D00010BD0000F0B581B040F6D020C2F6F67016
:1023E000867C45F6B041457CC77C45F6CC40C0F2C2
:1023F000000145F6E844C0F20000012E08BF014686
:10240000C0F20004002E18BF0C462846214601F0F9
:10241000F1FD45EA0720216880B2884730B140F6D7
:10242000A820C2F6F670FF21817203E0E268002066
:102430000021904744F2FC20C2F6F670067003F0CB
:102440009DF9FFF765FA01B0F0BD0000F0B581B06D
:1024500048F20005002744F218060446C4F2FF05BE
:10246000C4F20506076000F0B3F800F0D9F80820C0
:102470004FF4D571012201F095FA012001F0C0FA64
:102480004FF4FA7003F05CF9002001F0B9FA00BFD4
:1024900000F0F6FE37200021012201F083FA08BB8C
:1024A00029202946412201F07DFA56F8101C00B37C
:1024B00001F0170001281CD13068C0B280281ED05E
:1024C000C0281ED0012001F09BFA0A2000F020FD58
:1024D000002001F095FA0137A02FD9D1A027A02F15
:1024E00013D01BE0D7B140F20000C2F6F6703721DE
:1024F00010E040F20000C2F6F67029210AE0012047
:1025000000E082202060A02F08D140F20000C2F637
:10251000F670FF210167012001B0F0BD206810B105
:10252000002001B0F0BD00F07BF8002700F0A8FE0D
:1025300001202946612201F035FA98B93068C0B20D
:10254000802817D0C02817D0012001F059FA0A209E
:1025500000F0DEFC002001F053FA0137A02FE5D196
:10256000A0270BE040F20001C2F6F67101200867D7
:1025700001B0F0BD032000E083202060A02FCFD168
:1025800040F20000C2F6F670FE21C3E710B540F23B
:102590007404C2F6F6742046FFF758FF00281CBFEB
:1025A000012010BD211D204601F0BAFB10BD000026
:1025B00040F20000C2F6F670C16948F20002C4F2AF
:1025C00006021160016A5160406A90607047000025
:1025D00010B541F20404C4F200042068002140F068
:1025E00002002060022000F0ABFD4120E06048F2D4
:1025F0000000C4F2060043F20A01416041F60A01FC
:102600000160816044F20000C4F20500C121016054
:1026100040F27400C2F6F6704FF40F01816010BDF5
:10262000B0B544F20404C4F20504E825C0F21F0565
:102630002046802100220A23256003F0DBF90020D8
:102640000021002201F0AEF92046802100220A2359
:10265000256003F0CFF9B0BDC21700F01F0100EBF9
:10266000D260012202FA01F14EF280224011CEF234
:10267000000242F82010704748F20C00C4F2030038
:10268000016811F0140F1CBF142101607047000095
:10269000002A40F23042C4F205024FF080030FD00E
:1026A000137002234FF0000C43EA104382F800C07D
:1026B0001071000A50719371C2F808C01170704710
:1026C000137500231375022343EA10431076000AA2
:1026D0005076937611757047A2B140F23042C4F241
:1026E00005028023137002234FF0000C43EA1043CD
:1026F00082F800C01071000A50719371C2F808C0CE
:102700001170704744F60032C2F6F6721288012A40
:1027100040F23042C4F2050204BF80231375002347
:102720001375022343EA10431076000A507693761D
:102730001175704710B540F6A822C2F6F67292F8ED
:10274000263092F82740002B0A4618BF1A46002C64
:1027500018BF0A468B4240F2020428BF0A46C4F260
:10276000050462B1013804F1FF0100BF10F8013F18
:1027700001F8013CCBB29A4201F10101F6D104F813
:10278000012C2046042100224FF4FA7303F014F9BF
:1027900048B140F20000C2F6F67090F86C1041F0BB
:1027A000020180F86C1000F06BFD0220207040F2F6
:1027B0008C10C4F20500FF210170892180F8741289
:1027C00010BD0000B0B5002904BF0020B0BD0C460C
:1027D000451E002015F8011F80B200F003F8013CEF
:1027E000F8D1B0BD0A0982EA103245F6D473C0F2BE
:1027F000000333F8122001F00F0182EA001082B2C8
:10280000000181EA123180B233F81110484070475C
:10281000002904BF0020704745F64C6C421E002082
:10282000C0F2000C12F8013FC0B258401CF8000082
:102830000139F7D170470000F0B58DB00C4647F66E
:102840008551C8F277110C9147F22B31CFF2AE01CE
:102850000B914CF61521CBF671610A9143F660514C
:10286000C1F2EB0109914FF6FC51CFF6FE710891D0
:102870004FF6F811CFF6FA3107914FF2F451CFF23B
:10288000F67106914FF2F011CFF2F231059101216C
:1028900001918021029109A9039105A9049141F2B6
:1028A0000401C4F200010A68054642F0080048F23B
:1028B0001006086008200021C4F20906002700F075
:1028C0003FFC0498043000BFC159F2190437082FA7
:1028D0005163F9D1DDE9030109683163002100BFCB
:1028E00042588A5104311029FAD101AE304601F024
:1028F000BFF8304629462A46234601F0A5F80DB018
:10290000F0BD0000C21700F01F0100EBD2600122F1
:1029100002FA01F14EF280124011CEF2000242F8AA
:102920002010704770B582B048F20406C4F2030666
:10293000F068002481B2890011FA80F04AF6AB21D8
:102940004000CAF6AA21A0FB01016FF0030000EAD3
:10295000910509E030688DF80700FFF78DFE01341E
:102960004FF6FF7084420BD000F03CF90028F1D103
:10297000284603F009F800F035F90028EAD101E013
:102980004FF6FF74204602B070BD000041F2040013
:10299000C4F20000016841F0010101604FF0804085
:1029A000016821F001010160016841F0010101604D
:1029B00070470000F0B581B0174640F2000248F2BF
:1029C0000006C2F6F672C4F20206956C3468002D59
:1029D00024F4805518BF05F580553560356845F0FD
:1029E0000805356034680D4624F00801316031680F
:1029F0004FF0020421F003013160316864F30101FA
:102A000031604FF00B01B16013B1116D012901D19B
:102A1000010CB160010AB160B0600020B060301DEF
:102A200040210022052302F0E5FF4CF2041006F1DC
:102A30000C01C4F20100356141608721C0F2200120
:102A4000C760456140F8041C316840F2DC5321F056
:102A500003013160316821F030013160316841F0AB
:102A600030013160316841F0004141F04001316096
:102A700001210160326861F301023260012100220C
:102A800002F0B8FF31684EF6BC7241F008013160C7
:102A90003168C7F6FF721140316001B0F0BD00002F
:102AA00010B582B001A900200024FEF795F8002897
:102AB00018BF019469460B20FEF78EF800281CBF52
:102AC00000200090DDE9001001F4C02201F4002193
:102AD00000F47C4040EAC22040EA013040F2740138
:102AE000C2F6F671086102B010BD0000C21700F016
:102AF0001F0100EBD260012202FA01F14EF2001236
:102B00004011CEF2000242F82010704700F5807CA0
:102B1000FC3100220CE000BF51F822305CF82200AA
:102B200083423CBF002070478342A2F1010202D8D9
:102B300012F14000F0D101207047000070B540F65E
:102B4000D020C2F6F670467C847C057D02F016FE2D
:102B5000FEF7DEFE002E04BF002D70BD2CB14FF439
:102B60007A7004FB00F000F0D3F94CF22000C4F2BC
:102B700000005F21016070BD00EBC01146F214023D
:102B8000C0F2000202EB8101032888BF0021084641
:102B90007047000044F2F02240F2C401C2F6F6721F
:102BA000C2F6F671002808BF01F12C0210687047C8
:102BB00080B54FF4007002F0FFFD02F0DFFDFEF77C
:102BC000A7FE80BD40F20000C2F6F670816E4DF6A1
:102BD000C000C0F2A700012904BF48F20070C0F293
:102BE0009330704748F20C00C4F2030000680121E2
:102BF00021EA50107047000010B5818CC38C421838
:102C00008169C4691944104600F012F82044B0F1FB
:102C1000FF3018BF4FF0FF3010BD000080B5818C31
:102C200000F006F8B0F1FF3018BF4FF0FF3080BD64
:102C30000022B2EB910F08D089080438002200BFAF
:102C400050F8043F01391A44FAD110467047000089
:102C500010B50129044606D140F27400C2F6F670A0
:102C6000407CC0060DD42046FFF7D8FF00281CBFCB
:102C7000012010BD2046FFF7BFFF002818BF01202C
:102C800010BD204600F034F810BD000010B5044619
:102C9000006844F24131C4F65401884221D1606891
:102CA00045F24841C4F2431188421AD104F1300080
:102CB0000DA1052200F03CF9002804BF207A5FEA4C
:102CC00080700ED1A08CB0F5804F0AD8A169228DFA
:102CD0000844E18C08441044B0F1011F3CBF0020BF
:102CE00010BD4FF0FF3010BD35313238000000000C
:102CF000B0B582B0044690F82C00400722D50DF103
:102D0000060220460821002300F020F8054620B9DD
:102D1000BDF80600B0F5807F14D140F27400C2F611
:102D2000F6700069C0F34130FFF726FF50B1A18C67
:102D3000A269E38C11440B442946224602F014FE9A
:102D400002B0B0BD012002B0B0BD000010B5B0F8B7
:102D500024C0D0F818E0E64423B100F1260345F67C
:102D60003A1C05E0C38C45F6351C9E4400F128034F
:102D70001B88042B28D330F80E40A44524D1864468
:102D8000BEF802C00CF1040098424FF000001ED8BB
:102D9000BCF1050F38BF10BD0EF10400042306E09E
:102DA0004488043423449BB2204463450ED20488F3
:102DB0008C42F5D1B0F802E003EB0E046445EFD885
:102DC0000430A2F800E010BD002010BD002010BDAE
:102DD00010B500F055FA40F21C14C4F2000415209E
:102DE0002060642002F0ACFC0120A06000F048FAF2
:102DF00041F20400C4F20000016841F44061016046
:102E0000D0F8B01041F48071C0F8B010D0F8C01004
:102E100041F48071C0F8C01048F22C10C4F20600D2
:102E200041F210010160416010BD000080B5FEF765
:102E30009BFD80BD80B5FEF7A1FD80BD80B5FEF78E
:102E400087FD80BD80B5FEF789FD80BD10B548F2D5
:102E50000C04C4F2030454F80C0C000344BF2068B3
:102E60005FEA807013D454F80C0C400358BF10BDB7
:102E70002068C0070AD040F2C400C2F6F670816A2A
:102E800000291CBF032088470120206010BD40F2AC
:102E9000C400C2F6F670416A00291CBF01208847B1
:102EA00002202060DFE70000FEF7E6FF02F02EF9C7
:102EB000FEF7DAFFFFF7F4FD40F27404C2F6F67491
:102EC000607C400758BFFFF7D9F9607C000709D440
:102ED0004EF6F050CEF200000068C00704BF00209C
:102EE00002F0F4FAFFF7DCF8FEF7BCFD4FF04020EB
:102EF000016821F400410160607C00075CBF022092
:102F000002F0E4FAFEF7D8FC00F0C2F9FEE7000098
:102F100010B50021B1EB400F08BF10BDA1EB40047C
:102F20004FF4FA7002F00CFC0134F9D310BD00002C
:102F3000002A04BF0020704710F801CB11F8013BB4
:102F4000013ABCEB03031CBF18467047F0E70000D2
:102F500080B581EA00039B070DD08646002A08BF92
:102F600080BDAEF1010C013911F8013F013A0CF8B6
:102F7000013FF9D180BD830711D000F1010C8646D5
:102F8000002AF7D011F8013B013A0EF8013B5FEA45
:102F90008C730CF1010CF3D1042ADFD302E08646D6
:102FA000042ADBD351F8043B043A4EF8043B032ACD
:102FB000F8D8D3E7002A08BF7047431E03F8011F63
:102FC000013AFBD1704700002DE9F041ADF5407D9D
:102FD000054680A888460438002100BF08EB01029E
:102FE000D2F8FC20043912BA40F8042F11F5807F82
:102FF000F4D140AE05F5827380AA2846314600F030
:1030000031F86FF001046F462846394632463346A0
:1030100000F028F8284631463A463B4600F022F8B0
:1030200002340E2CF0D36E4640AA80AB28463146BF
:1030300000F018F828463146FFF768FD18B16946D8
:10304000284601F0F7FFA8F104003F2156F821209F
:10305000013912BA40F8042F4A1CF7D10DF5407D12
:10306000BDE8F0812DE9F0410D46064608464FF4D3
:10307000807198461746FDF714F9043F402400BFBD
:1030800057F8042F30462946434600F005F8013C26
:10309000F6D1BDE8F08100002DE9F04153F8047B42
:1030A0000D680024E7FB0254D0E900764FF0000ED3
:1030B00007FB05FCACFB0667AD1947F1000500BF37
:1030C00001EB0E0653F80E707668E7FB624600EBE4
:1030D0000E07D7F808802746E8FB6C57344641F8BE
:1030E0000E500EF1040EBEF1FC0F3D46E8D1BA19A8
:1030F000C1F8FC2028BF01F09DFFBDE8F081000071
:1031000080B50422C4F20002002908BF4FF08042BB
:10311000116808431060102002F012FB80BD00000F
:1031200080B50422C4F20002002908BF4FF080429B
:10313000116821EA00001060102002F001FB80BD40
:10314000B0B50C460546FFF7EBFF28462146FFF7D2
:10315000D7FFB0BD10B548F20004C4F202042168E4
:10316000022241F008012160216821F0080121605C
:10317000216821F003012160216862F301012160CF
:103180001321A1600021A160010AA160A06001F0EB
:10319000DDFA206840F0080020600A2002F0D0FA32
:1031A00001F07CF9002818BF012010BD0220C4F2F4
:1031B0000500017841F00201017090F88A1141F098
:1031C000010180F88A1140F20040C4F20500892113
:1031D0000170704780B540F6A820C2F6F670FF2156
:1031E00081721320C4F20500017841F002010170E0
:1031F00040F20000C2F6F67090F86C1041F0200129
:1032000080F86C10FDF76EFFFFF7B4F880BD00008A
:1032100080B540F6A820C2F6F670FF21817202F058
:10322000ADFAFEF775FB80BD80B500F025FA40F6DB
:10323000A820C2F6F67090F820007F2807DC78B14D
:10324000012810D0022817D102F054FC80BD80283C
:103250000CD081280DD082280ED100F0A7FA80BDB5
:1032600002F0E6FB80BD02F09FFC80BD00F026FA74
:1032700080BD00F0B5FA80BD01F0F6FE80BD000013
:103280004CF22000C4F200001D21016070470000D4
:103290004CF22000C4F200005F2101607047000082
:1032A00010B540F6D024C2F6F674607CFFF772FCCD
:1032B00038B1D4E9051283694902500200229847C7
:1032C00005E040F6A820C2F6F670FF21817202F0F8
:1032D00055FAFEF71DFB10BD2DE9F04F8DB00446E9
:1032E0000844451E18780029009148BF4FF0FF356B
:1032F00000282046019400F09581DDF858E009A8E7
:10330000019CA0F1010BCDF808B0CDE9075204E013
:1033100013F8010F002800F085811878252839D18D
:103320001F4617F8018F0126F1461D46B8F1300FF0
:1033300004BF02269F1CFCF791FF0168AA5D8B5C0D
:10334000202B35D101684FF0000A00BF0AEB8A003C
:1033500002EB400017F8012FA0F1300A8B5C202B04
:10336000F4D02E2A28D117F8016F885D202831D19A
:10337000DDE9075200204FF0300CCE4600EB800014
:1033800006EB400017F8016F30388B5D202BF5D02D
:1033900026E000BFAC4205D2002A02BF0A280D2059
:1033A00004F8010BAC42B3D2187804F8010BAFE774
:1033B0004FF0000A2E2AD6D0A8F13000B0FA80F0E3
:1033C0004009DDE907524FEA40083B464FF0300C18
:1033D000CE460BE0DDE9075200204FF0300CCE4620
:1033E0004FF002083B468245B8BF82461878253820
:1033F00053283FF68DAF0A26DFE810F05500540041
:10340000540054005400540054005400540054001C
:10341000540054005400540054005400540054000C
:1034200054005400540054005400540054005400FC
:1034300054005400540054005400540054005400EC
:1034400054005400540054005400540054005400DC
:1034500054005400540054005400540054005400CC
:1034600054005F00540054005400540054005400B1
:10347000540054005400540063005B005400540096
:10348000540054005B005400540054005400540095
:103490006D00610054005400E90054006E005400B7
:1034A0005400610034E7AC423CBF252004F8010B16
:1034B0002EE748F001080A260EE008F1040810265D
:1034C0000AE0AC423CBFDEF8001004F8011B0EF12C
:1034D000040086461CE708265EF8049B002004933F
:1034E000B9F1000FCDF814E048BF012010EA080040
:1034F00018BFC9F10009069018BF2D20B9F1000FBF
:10350000039019D0454608F004074FF0000800BFAB
:10351000B9FBF6FB4AA10BFB1690002F085C18BF05
:10352000FCF7A0FE08F1010109AA02F808004E45C7
:103530008846D946ECD903E045468DF824C00121E0
:10354000DDF8188015F0020CAAEB0800A0EB0100D2
:1035500011D101280EDBDDE9043E089A079D2027E2
:10356000AC4238BF04F8017B01380028F8DC4FF08A
:10357000FF3004E00138DDE9043EDDE907520026B2
:10358000AC4228BF012688F00107374304BF039EE1
:1035900004F8016BDDF808B03027BCF1000F0BD048
:1035A000012809DB013000BFAC4238BF04F8017BC1
:1035B00001380128F8DC00BFAC423CBF1BF8010019
:1035C00004F8010B0139481C0128F5DCA0E65EF87F
:1035D000040B46F690010028C0F2000108BF08461F
:1035E00007788FB994E6014611F8016F0A2E0FD0C3
:1035F000AC423CBF0D2004F8010BAC423CBF0A209A
:1036000004F8010B09E000BF002A08BF0D2FEAD023
:10361000411CAC4238BF04F8017B0F780846002FEC
:10362000F2D175E6AC42204603D90098012828461D
:1036300001DB002101700198201A0DB0BDE8F08F68
:103640003031323334353637383961626364656618
:1036500000000000C11700EBD1614EF200224911B9
:10366000CEF2000252F8211000F01F0021FA00F003
:1036700000F001007047000040F28010C4F2050025
:10368000017840F6A822C2F6F67282F8201041783E
:1036900082F82110817882F82210C17882F82310F4
:1036A000017982F82410417982F82510817982F815
:1036B0002610C07982F827007047000080B540F6D8
:1036C000A820C2F6F67090F82110F9B1082922D08E
:1036D000062939D190F823100139062934D8DFE8BA
:1036E00001F0041F30333336470040F2A310C4F218
:1036F0000500017801F00201017040F22810C2F6C5
:10370000F67098301221FFF715F880BD0C300221B9
:10371000FFF710F880BD1D300121FFF70BF880BDC9
:1037200040F2A310C4F20500017801F0020101701B
:1037300040F22810C2F6F670AC302021FEF7FAFFF6
:1037400080BD90F8220038B301F08EFC80BD40F2BD
:10375000A310C4F20500017801F00201017040F2EB
:103760002810C2F6F670E8300A21FEF7E3FF80BDAC
:1037700040F2A310C4F20500017811F002010170BB
:1037800040F22810C2F6F6704FF0090114BF5C3009
:10379000F430FEF7CFFF80BD40F22810C2F6F6707D
:1037A00000F598700421FEF7C5FF80BD80B540F696
:1037B000A820C2F6F67090F8251011B101F054FC63
:1037C00080BD90F82410822904D0012918BF80BD43
:1037D000103000E012300221FEF7ACFF80BD000087
:1037E00080B540F6A820C2F6F67090F821100A299C
:1037F0000BD081B990F8241069B990F8251051B90F
:103800000E300221FEF796FF80BD90F8241011B90A
:1038100090F8251011B101F027FC80BD0B3001217B
:10382000FEF788FF80BD000010B540F2C401C2F66B
:10383000F671CB6C0121642204469847012812BF1F
:103840001420204600F008F8002818BF10BD217889
:10385000052908BF207910BDB0B5044640F2C40068
:10386000C2F6F670C36C601C05210022984705283B
:1038700008D1657920460521FEF7CAFF854204BFBD
:103880000020B0BD0A20B0BD70B582B00546002052
:10389000ADF80600BDB10C46B9B140F2C406C2F69F
:1038A000F676F36C0DF10600022164229847F36C62
:1038B0002846214664229847A0420DD12846214639
:1038C000FEF780FF02E00A2007E00020BDF80610A6
:1038D000401A18BF0D2000E00C20C0B202B070BD2D
:1038E00080B582B06846FFF79FFF9DF8001005394C
:1038F00018BF0A21002808BF084602B080BD00009A
:10390000F0B581B040F20D454FF440600021C4F2A3
:1039100005050024FFF714FC102040F6A8212875A7
:1039200040F200075520C2F6F6714FF00112C2F6C0
:10393000F677C1E902020F20BC660A61E87405F15E
:103940001500012100226423012602F035F828B178
:1039500097F86C0040F0010087F86C00FFF790FCCE
:1039600028784FF4006140F08000287040F2004059
:10397000C4F2050040F8BC4C40F8F81CF02101707E
:103980004FF68C51CFF6FF71FF2242544FF69851FB
:10399000CFF6FF714654092101706FF4177144543A
:1039A00001B0F0BD70B544F20404C4F20504E16056
:1039B00040F27401A060C2F6F671896815461143A1
:1039C00041F08001216064230C2808BF4FF47A7312
:1039D000204680210022002602F00CF800281CBF9F
:1039E000012070BD606805F00F01092938BF01266C
:1039F00048F21701084018BF0120304070BD000098
:103A000044F20401C4F205010A6822F4805242EA39
:103A1000003008607047000041F20400C4F200006A
:103A200000218163016841F4803101604FF08040E2
:103A3000016841F4803101600020C4F20200016895
:103A400041F008010160704780B582B04FF0000C72
:103A5000CDF800C000F072F802B080BD80B582B031
:103A60004FF0010CCDF800C000F068F802B080BD46
:103A70002DE9F04381B0002848D081464068802875
:103A800018BFB0F5807F3FD14026C4F20206FFF791
:103A9000C3FFD9F804000027C11700EB9163CFF6EC
:103AA000FE77D9F8002007EAC323D706A3F58028BC
:103AB00014D420280FDB00EBD160D9F8085047114F
:103AC000A6F13004284601F0E3FA44F8040B013F64
:103AD00005F10405F6D148F4881509E002F020004C
:103AE0004FF4801148EA803021EA823140EA010532
:103AF000D9F80C407CB10027E01901F0C9FAB8519F
:103B00000437102FF8D10DE0C028BDD04FF0FF30A2
:103B100001B0BDE8F0830020002100BF88510431CE
:103B20001029FBD1D9F8000000F0030045EA80001D
:103B300046F83C0C002001B0BDE8F083002804BF2B
:103B40004FF0FF30704770B50024C4F20204606883
:103B5000049E20F00100002E18BF01306060A360B9
:103B6000D4F88000002540F02200C4F88000C4F89A
:103B7000005820684CF2042640F001002060C4F296
:103B800001064FF4114046F8040C04F18400726001
:103B9000F0600120912273613060C6F8FC2004F1CE
:103BA0008802C6F80421C6F80C11C6F81431C6F80C
:103BB000000120464FF000414FF00042642301F025
:103BC00019FF00281CBF3560C6F80051216821F09C
:103BD0000101216070BD000070B510B1054680077D
:103BE00001D0002070BD14460E4600F021F8284692
:103BF0003146012200F03CF8204600F003F8204650
:103C000070BD0000002804BF4FF0FF30704770B552
:103C100040F2142604460025C4F2020630686119F9
:103C200001F054FA0435202DF8D1002070BD0000B9
:103C3000B0B540F20025C4F2020500F05FF808209C
:103C400000242860EC602868022140F0020028600F
:103C5000284600220A2301F0CDFE00281CBF4FF0A9
:103C6000FF30B0BD2120AC6068602046B0BD0000D0
:103C7000B0B5034600284FF0FF3018BF002900D12F
:103C8000B0BD40F20024C4F202041AB1606840F0F2
:103C900010006060A160E0684CF2042540F0020072
:103CA000E0600220C4F800062068C4F2010540F07C
:103CB000010020604FF4114045F8040C04F110009D
:103CC0006B60E86001206961286020464FF0004188
:103CD0004FF00042642301F08DFE00281CBF00213C
:103CE0002960216821F0010121606168890658BFBF
:103CF000B0BD616821F020016160B0BD41F20400F7
:103D0000C4F20000016841F4803101604FF080414D
:103D10000A6842F480320A60002181637047000023
:103D20002DE9F0410C460546FFF7AAFA0120FFF7FE
:103D300067FE4FF4FA7001F003FD0020FFF760FE0C
:103D40000220002102220226FFF72CFE38B140F2A9
:103D50000000C2F6F67006670120BDE8F08100267B
:103D6000C5F2AA560320314603220327FFF71AFEA5
:103D700038B140F20000C2F6F67007670220BDE8D5
:103D8000F081286800F00F0003280FD10920314688
:103D9000022226600926FFF705FE48B340F2000024
:103DA000C2F6F67006670320BDE8F08144F2000514
:103DB000C4F2050568694FF47F0101EA1020A96982
:103DC000032240EA01600321206041F21000C4F2A6
:103DD0000000016021680720FFF7E4FD30B340F2E6
:103DE0000000C2F6F670472101670820BDE8F081A7
:103DF00044F20008C4F20508D8F8200000F0705022
:103E0000B0F1805F02D12868013028602168072066
:103E1000032207260327FFF7C5FDF8B140F2000093
:103E2000C2F6F67006670420BDE8F0814FF4FA7020
:103E300001F086FC21680D200122FFF7B3FD216807
:103E400037200122FFF7AEFD78B340F20000C2F642
:103E5000F670772101670A20BDE8F0814FF4FA700F
:103E600001F06EFC41F21000C4F20000076021680E
:103E70000D200122FFF796FD286800F00F000428AE
:103E800022D1642001F05CFC0021C0F2B731062091
:103E900003220624FFF786FDB0B140F20000C2F60F
:103EA000F67004670720BDE8F08106200021032298
:103EB000FFF778FD88B140F20000C2F6F6704621A7
:103EC00001670B20BDE8F081D8F8000020F0030066
:103ED000C8F800000020BDE8F081286820F0030049
:103EE00028600020BDE8F08180B582B040F6D02087
:103EF000C2F6F670407CFEF74DFE10B18068804738
:103F000001E04FF0FF30019001A8042101F09AFC7C
:103F100001F034FCFDF7FCFC02B080BD10B544F2AA
:103F20000034C2F6F67420464FF40071FCF7B9F97C
:103F300020464FF4007101F085FC01F01FFCFDF7F5
:103F4000E7FC10BDF0B583B00C4605460020ADF887
:103F50000A00002D08BF2C469DF80510F02000EA4D
:103F6000121001F00F0140F2C4070144052BC2F604
:103F7000F6778DF804308DF805108DF8082003D100
:103F80008DF80500002007E097F8321001F00F01CE
:103F900008438DF80500204601AEADF80600304616
:103FA0000521FEF735FC3B6D8DF8090030460621F2
:103FB0000022984784B128462146FEF703FC3B6D5A
:103FC000ADF80A000DF10A000221002298473B6D6E
:103FD0002846214600229847FDF748FA0028FBD0E2
:103FE00003B0F0BD80B50246002000210523FFF795
:103FF000A9FF80BD44F2F02340F2C402C2F6F6737A
:10400000C2F6F672002808BF02F12C03196070474F
:1040100040F2C401C2F6F67181F835007047000025
:1040200080B5AB2000F072F8C82001F089FBFF20BA
:1040300000F06CF8142001F083FB80BD10B548F24D
:104040000004C4F202042168022241F00801216048
:104050002168012821F008012160216821F0030175
:104060002160216862F3010121604FF09F01A1608E
:1040700004BF0020A06000F069FB206820F003006E
:104080002060206820F030002060206840F0300080
:10409000206001202061216860F30101216000F0AF
:1040A00055FB206820F003002060206840F00800E5
:1040B0002060206820F400702060E068FF2818BFAE
:1040C000002801D1012010BD002010BD80B5AB201B
:1040D00000F01CF8642001F033FB062000F016F815
:1040E000C520002100F034F8E92000F00FF8FF208F
:1040F00000F00CF8142001F023FBFF20FF2100F05A
:1041000027F8142001F01CFB80BD000010B548F218
:104110000004C4F202042168022241F00801216077
:10412000216821F008012160216821F0030121604C
:10413000216862F301012160A06000F007FB2168A3
:1041400021F003012160216841F00801216010BDC8
:1041500010B548F20004C4F202042268022342F0BF
:1041600008022260226822F008022260226822F0FF
:1041700003022260226863F301022260A060A16052
:1041800000F0E4FA216821F003012160216841F088
:104190000801216010BD000041F20400C4F20000DB
:1041A000C169012262F30901C161016841F0100196
:1041B00001604FF08040016821F01001016001684A
:1041C00041F01001016048F2000040F23811C4F2E1
:1041D0000200C3F2000101602021416245F27861D2
:1041E000C1F234214161016841F4804101607047AE
:1041F000032888BF7047DFE800F00229112048F249
:104200005000C4F2060043F2240140F8281C40F894
:10421000241C40F8201C40F81C1C704748F2500039
:10422000C4F2060043F22401C0F88410C0F88810DC
:10423000C0F88C10C0F89010704748F25000C4F2DB
:10424000060043F224018160C16009E048F2500099
:10425000C4F2060043F2240140F8081C40F8041C94
:104260000160416070470000032888BF7047DFE8A5
:1042700000F00229112048F25000C4F206004FF469
:10428000805140F8281C40F8241C40F8201C40F8BD
:104290001C1C704748F25000C4F206004FF48051D5
:1042A000C0F88410C0F88810C0F88C10C0F89010C6
:1042B000704748F25000C4F206004FF4805181600C
:1042C000C16009E048F25000C4F206004FF480518A
:1042D00040F8081C40F8041C016041607047000071
:1042E00048F200010068C4F2020101F58042022395
:1042F000904208BF0123401A18BF184670470000BB
:1043000048F200010068C4F2020101F58042022374
:10431000904208BF0123401A18BF1846704700009A
:1043200081B00520009000BF0098411E0028009138
:10433000FAD101B07047000081B00520009000BFA5
:104340000098411E00280091FAD101B0704700008A
:1043500010B541F20404C4F20004FFF7D1FF0228B3
:1043600008D001280AD0002818BF10BD0120E06144
:10437000102006E001206062402002E0012020625F
:10438000202021680843206010BD000080B5002176
:1043900000F0E4F8C0F3C03080BD000048F2000037
:1043A000C4F20600016840F20002C2F6F672D16162
:1043B0004168116281685162C16891628169D1620C
:1043C000C1691163816A5163C16A9163016BD163F1
:1043D000406B10647047000040F20000C2F6F670B7
:1043E000C16948F20002C4F206021160016A51601C
:1043F000416A9160816AD160C16A9161016BD1614A
:10440000416B9162816BD162C16B1163006C50632F
:104410007047000002280BD0012814D0002818BFD4
:10442000704748F20000C4F2060043F2210110E098
:1044300048F20000C4F2060043F236018162C16214
:1044400001634163704748F20000C4F2060043F282
:104450003601016041608160C160704702280ED062
:1044600001281CBF0028704748F20000C4F2060073
:104470004FF480510160416081600C3009E048F2E6
:104480000000C4F206004FF480518162C1620163F2
:1044900034304FF4805101607047000010B56FF068
:1044A000080400BF0A2001F04BF9C02000F00AF810
:1044B000002C00F0010008BF10BD002804F1010429
:1044C000F0D110BD10B548F20004C4F20204216816
:1044D000022241F0080121602168C0B221F00801E8
:1044E0002160216821F003012160216862F301014C
:1044F00021600F21A160A06000F028F9206800224F
:1045000020F0030020602068052320F030002060A8
:10451000206840F03000206001202061216860F3B5
:1045200001012160201D042101F064FAE068216886
:10453000C0B221F003012160216841F0080121602F
:1045400010BD000080B5002918BF0121CB03002158
:104550004FF4004200F0BCF880BD000000684058F5
:1045600070470000006800687047000070B50E4694
:1045700010211546044600F01DF9204600210322B3
:10458000012300F0A5F806E020460C21013DFFF7CD
:10459000E5FF06F8010B95B12046FFF7A1FE38B103
:1045A00020460421FFF7DAFF4006F9D4ECE700BF0C
:1045B00020460421FFF7D2FF4007F9D4E4E7204664
:1045C00000210322002300F083F870BDF0B581B014
:1045D0000F464324102116460546C8F2000400F099
:1045E000E9F8A31E28460021224600F071F828466B
:1045F000FFF776FE8721C0F220012B69CA1C032831
:1046000038BF42181A60286829690C308860286908
:10461000012107612869866128694160286900BF16
:104620004168C907FCD1FFF77BFE284600F0A0F8DF
:10463000284600212246002300F04AF801B0F0BDD0
:10464000B0B5FFF74DFE022888BFB0BD08A14FF0FE
:10465000804451F82010236808A252F8205003EA41
:1046600001002060FFF75CFE206828432060B0BD99
:10467000EFFFFFFFDFFFFFFFBFFFFFFF10000000A6
:104680002000000040000000B0B5FFF739FE02280E
:1046900088BFB0BD08A14FF0804451F820102368B6
:1046A00008A252F8205003EA01002060FFF744FE00
:1046B000206828432060B0BDEFFFFFFFDFFFFFFF52
:1046C000BFFFFFFF100000002000000040000000BE
:1046D000F0B581B01C4615460E460746FFF73EFF73
:1046E000A84340EA04023846314600F063F801B0BE
:1046F000F0BD000080B542690AB1904780BD002935
:1047000018BF0121CB0000210822FFF7E1FF80BD87
:1047100080B5C1F341014FF4406201318B020021A9
:10472000FFF7D6FFFFF7FCFD80BD000080B54FF41A
:104730000053002908BF4FF48053002A08BF1346D6
:1047400000214FF44052FFF7C3FF80BD10B548F27F
:104750000404C4F20204204610211022052301F0B3
:1047600049F9204640210022052301F043F910BDFC
:1047700010B50446FFF7B4FD70B100BF2046042118
:10478000FFF7ECFEC006F9D520460421FFF7E6FE50
:10479000C007F9D10CE000BF20460421FFF7DEFE80
:1047A000C006F9D520460421FFF7D8FE4006F9D40B
:1047B00010BD0000006842507047000000680160B2
:1047C0007047000070B515460E46002103220223F3
:1047D0000446FFF77DFF06E016F8012B204608216E
:1047E000013DFFF7E7FF95B12046FFF779FD38B1AE
:1047F00020460421FFF7B2FE8006F9D4ECE700BFA3
:1048000020460421FFF7AAFE8006F9D4E4E7FFF76B
:1048100087FD2046FFF7ACFF20460021032200233E
:10482000FFF756FF70BD0000F0B581B08324C8F2D9
:10483000000416460F46631E002122460546FFF778
:1048400047FF2846FFF74CFD48F20071C0F22001F7
:1048500001F54072032838BF01EB0022286902608D
:10486000286987602868296908300861286901215A
:1048700086612869416028694168C907FCD1FFF752
:104880004FFD2846FFF774FF2846002122460023EB
:10489000FFF71EFF01B0F0BD80B50A460021FFF70B
:1048A00089FFFFF73DFD80BD10B50021044600F0F3
:1048B000CFF82046FF21FCF795FF2046FF21FCF7AB
:1048C00091FF2046012100F0C3F810BDB0B50C46A1
:1048D0000021054600F0C0F82846D82122460323CF
:1048E00000F07CF90020B0BD70B500210446FFF750
:1048F00035FE05462046FFF749FD002804BF204647
:10490000FFF79EFE40F238162046C3F20006FFF77E
:10491000E7FC30B106F5FE4220460021FFF74AFFD2
:1049200011E005F4704040EA060220460021FFF73E
:1049300041FFA80507D5204600214FF400724FF42F
:104940000073FFF7C5FEE37AFF2B04D02046242135
:104950003F22FFF7BDFE207980070AD52046FFF7EA
:10496000BFFC30B9204600214FF040520023FFF732
:10497000AFFEA26922B1E16800291CBF2046904722
:10498000E16900291CBF20468847284670BD000009
:1049900080B584B04FF0000C8DE806109F210022F6
:1049A0000023CDF80CC000F061F804B080BD000019
:1049B000B0B584B0847ADDF820E09446022C0A4633
:1049C00008D0042C14D10179490715D401216B2496
:1049D000012514E041686FF0440411F0040108BFA0
:1049E0003B244FF002014FF0010508BF012106E012
:1049F000012500210B2402E003250221EB24009372
:104A0000CDE90251E1B26346CDF804E000F02EF8A2
:104A100004B0B0BD80B586B0012205AB4FF0000CEC
:104A2000CDE9003200220023CDF808C0CDF80CC03B
:104A300000F01CF89DF8140006B080BD80B5E92296
:104A4000042908BFB722114600F0C0F880BD00005D
:104A500080B5FFF74FFE80BD80B50422002908BF56
:104A60000622114600F0B2F880BD00002DE9F047A3
:104A700082B01F460D460446012B019204DB6846B6
:104A800001A93A4600F010FB2079C00702D1FEF7D9
:104A9000CDF980460D9E2046FFF726FF8146204631
:104AA000FFF774FC20B9204600210022FFF73EFEEC
:104AB00048F2140045F27861C4F20200C1F23421D8
:104AC000016020460021FFF7C3FF5FEA467A03D565
:104AD000A17A2046FFF71CFE20462946FCF782FEFD
:104AE000B00703D5A17A2046FFF712FE0C9D012FD7
:104AF00004DB694620463A46FCF780FE35B100BF2C
:104B000020460021FCF76EFE013DF9D10B9FF00716
:104B100003D0A17A2046FFF7FBFD012F15DB0A9D8C
:104B2000300706F040003BD418B120460021FFF7C3
:104B300009FDF00604D5204600210122FFF7F6FD0D
:104B4000204629463A46FCF741FEBAF1000F03D051
:104B500020460121FFF7DCFDB00607D4F00609D599
:104B6000204600210022FFF7E1FD03E0204601215D
:104B7000FFF7E8FC20460121FFF76AFF2046FFF718
:104B800005FC18B920464946FFF786FE2079C00784
:104B900004BF4046FEF752F9002002B0BDE8F0879E
:104BA00018B120460021FFF7CDFCF00604D52046C1
:104BB00001210122FFF7BAFD204629463A46FCF7BB
:104BC0001DFEBAF1000FC3D1C6E7000080B5002278
:104BD000002300F003F8002080BD000080B584B001
:104BE0004FF0000CCDE900CCCDE902CCFFF73EFF41
:104BF000002004B080BD000080B540F28C01C2F6F8
:104C0000F671002808BF0846FFF74EFE80BD000081
:104C10002DE9F041002A04BF0020BDE8F0810D46D7
:104C20001143144609051CBF4FF0FF30BDE8F08169
:104C300040F28C08C2F6F678002818BF804600279C
:104C4000012C1ADBA8B20021002818BF0120B4F5FE
:104C5000803FB8BF012108434FF480364FF0D801A0
:104C600018BF4FF48056404618BF20212A4600F056
:104C700007F8A41B002C3544E4DC3846BDE8F0817D
:104C800080B582B0436A4FF0000C9B074FF00403DD
:104C900058BF0323CDE900CC00F00CF902B080BD71
:104CA000B0B540F28C04C2F6F674002818BF044672
:104CB000206938B141F20400C4F20000016841F0FB
:104CC000010101602046FFF743FB2046FFF7DCFCB3
:104CD00048F21800C4F206004FF4C05100250160EC
:104CE000416000BF2846FFF795FB204600F030F8F2
:104CF000C1B2002918BFFF2907D12846FFF7AEFB34
:104D00000135032DEED1032508E000F47F00B0F556
:104D1000C01F03D92046042100F064F8032D04BF0E
:104D20004FF0FF30B0BD204600F03EF80020B0BD8F
:104D300063B180B540F28C0CC2F6F67C002818BF37
:104D40008446604600F014F8BDE8804000207047BB
:104D500080B582B040F28C01C2F6F671002808BF1F
:104D6000084601A90322FFF713FE019802B080BD97
:104D700080B582B09C461346426A92074FF0040207
:104D800058BF0322CDF800C0FFF712FE02B080BD6D
:104D900080B540F28C02C2F6F672002808BF1046B9
:104DA000FFF738FE80BD0000B0B582B00521044693
:104DB000FFF7EEFF10F03C0F8DF8070010D0002039
:104DC0000DF107058DF80700204601212A46012331
:104DD00000F0C2F8204631212A46012300F0BCF839
:104DE00002B0B0BD80B540F28C02C2F6F672002867
:104DF00018BF0246506A042920F0020008BF0230A2
:104E000050621046FFF71AFE80BD000040F29B3151
:104E1000884201D20D2008E045F6BF5188429ABF72
:104E200042F6E061B1FBF0F0002041F22001C4F253
:104E3000000108607047000010B5044620460521B7
:104E4000FFF7A6FFC007F9D110BD00002DE9F04320
:104E500081B05BB340F28C08C2F6F678002818BF28
:104E600080469946012B21DB15460E46C8B24C46BA
:104E7000002818BFC0F58070484501462746C8BFC6
:104E80004946B4F5807FA8BF4FF48077002818BF4B
:104E90000F46404631462A463B4600F049F8E41B9F
:104EA0003E443D44002C4FF00000E5DC002001B002
:104EB000BDE8F0832DE9F04F85B004460079DDF8B8
:104EC0003C90DDF838A01E461746C0070D4602D1BB
:104ED000FDF7B0FF8046204600214FF0000BFFF7A2
:104EE000BBFD0820CDE902B0204629463A463346AC
:104EF000CDF800A0CDF80490FFF7B8FD2079C007E9
:104F000009D194F82400C00708D12046FFF794FF88
:104F10004046FDF797FF05B0BDE8F08F4046FDF72E
:104F200091FF2046FFF788FF05B0BDE8F08F000035
:104F300080B582B09C46436A8E4699074FF00403C1
:104F400058BF0323009202217246CDF804C0FFF738
:104F5000B1FF02B080BD000080B582B09C4640F237
:104F60008C03C2F6F673002808BF18460092002290
:104F70000023CDF804C0FFF79DFF02B080BD000004
:104F80002DE9F04F85B040F28C05C2F6F6759846D3
:104F900093460F46002818BF0546FDF74BFF824693
:104FA0002846FFF7DFFA8146284600210026FFF752
:104FB00053FD08EB070020F0FF0427F0FF00A0429C
:104FC0001DD038204FF0000C5646A4EB070A039082
:104FD000284602213A460323CDE900BACDF808C09D
:104FE000FFF744FD2846FFF727FF28460021D3445A
:104FF000A8EB0A08B2460026FFF72EFD27465824E4
:10500000284602213A460323CDE900B802960394CC
:10501000FFF72CFD2846FFF70FFF28464946FFF70C
:10502000CDFBFFF789F95046FDF70CFF002005B0D6
:10503000BDE8F08FB0B500F1040E4FF0000C002376
:105040000022002051F823405EF82350641B6CF1CD
:105050000005A41845EB000241F823400133402B22
:105060004FEAE270EED1B0BD0220C4F20500017833
:1050700041F00101017040F20000C2F6F67090F8B4
:105080006C1041F0100180F86C1070470088704778
:10509000B0B504460230FFF7F9FF05462046FFF79A
:1050A000F5FF40EA0540B0BD012AB8BF7047114482
:1050B00001390138013200BF11F80139013A00F815
:1050C000013F012AF8DC704708807047B0B50546FB
:1050D00080B20C46FFF7F8FF280CA11CFFF7F4FF85
:1050E000B0BD00004CF20810C4F200000068C043DC
:1050F0007047000080B5FFF7F5FF4AF6AB21CAF60E
:10510000AA21A0FB0101080980BD000041F20800AE
:10511000C4F20000016841F4806101600421C4F21E
:1051200000010A6842F480620A60002181634CF247
:105130000010C4F20000012101604FF0FF31416016
:10514000242101607047000040F2C400C2F6F670EE
:10515000002180F8201041F2AD2141F20D52C0F241
:105160000001C0F20002C16442F62511026545F259
:10517000B162C0F20001C0F20002416545F28D61EA
:10518000826541F2CD12C0F20001C0F20002C0E916
:105190001712704710B582B004466846082928BF28
:1051A0000821FEF771FB18B10C24204602B010BD97
:1051B000A4F152001E281CD8DFE800F0101B1B1BB6
:1051C0001B1B1B1B1B1B1B1B1B1B1B1B2632451BE3
:1051D0001B1B1B4A1B1B1B1B1B5468000020FEF7DC
:1051E00001FF00980130FDF793FEFEF751F800BF74
:1051F000FEE740F2C400C2F6F670406D8047212001
:105200002124FEF7EFFED0E7009848F68151C0F266
:105210005B01884246D320202024FEF7E3FEC4E74A
:1052200000200024FEF7DEFEFEF75AFB40F2C40029
:10523000C2F6F670012180F83010052180F8341094
:1052400000F070F9B1E70020FEF7CCFE1524ACE7C2
:1052500040F2C400C2F6F67090F835402046FEF7E2
:10526000C1FEA2E79DF8000040F2C4020021C2F690
:10527000F67200BF02EBC10393F83D30B0EB131F91
:105280001CD001310129F5D01F2418E0009840F20C
:10529000C401C2F6F671C1F8360000200024FEF702
:1052A000A1FE82E700200024FEF79CFE40F2C4002D
:1052B000C2F6F670016E0098884776E70024204613
:1052C000FEF790FE71E70000B0B582B040F2C40571
:1052D000C2F6F67595F8300008B1012413E000F02D
:1052E0002BF901A800216322002400F05FF850B9D7
:1052F0000020FEF777FE0124052085F8304085F870
:10530000340000F00FF9204602B0B0BD2DE9F04F97
:1053100083B040F2C40591468A464FEA132B00261B
:105320000DF10408C2F6F675002448B181880068C2
:10533000ADF808100190002747B1A7B1D7B91FE019
:105340004046FEF771FA0746002FF6D19DF805009A
:10535000BDF80640BBEB101718BF1E274C4588BF91
:105360000E27002FEAD1BDF806105046FEF78CFA42
:1053700007462FB1686D80470A2F18BF142F0FD032
:10538000F8B2FEF72FFE0D2F06D195F83400013646
:1053900086424FF00000C8D3002F18BF7C4200E0C7
:1053A0007C42204603B0BDE8F08F00002DE9F041BB
:1053B00040F2C408C2F6F6780D46D8F854101446E8
:1053C0000646884700270D200D2805D1304629467E
:1053D00022460123FEF7B6FDFEF782FA0D2806D11C
:1053E00098F8341001378F42EED3BDE8F0810028E1
:1053F00018BFBDE8F08198F832104A1C02F00F0285
:1054000001F0F001114488F83210BDE8F08100008D
:10541000B0B582B040F2C404C2F6F67494F830001D
:1054200038B101A8002164220025FFF7BFFF84F8EE
:10543000305000F067F8012002B0B0BD8446481E2D
:10544000B0FA80F04FEA50104FEA40010FD140F21D
:10545000C400C2F6F67000F13C0300205A6842B165
:105460000130814203F10803F8D1084605E000202D
:1054700003E0DCE9002CC3E9002C884208BF4FF0B0
:10548000FF30704780B50139B1FA81F14FEA51110F
:105490004FEA410E10D1426840F2C40C0020C2F61F
:1054A000F67C00BF0CEBC003196C8A4206D00130B9
:1054B0008645F7D1704603E0002001E00021196421
:1054C000704508BF4FF0FF3080BD000010B50446A6
:1054D000FCF7F8FEFDF7D4FE2046FCF7C7F80028DD
:1054E00008BFFCF7FBF8FCF793F8FCF729FF10BDA9
:1054F00080B582B0019001A804216F22FFF756FF0A
:1055000002B080BD80B540F2C400C2F6F67090F8DB
:105510003310002908BF80BDC26D002180F8331010
:10552000904780BD80B546F6E000C0F200000E2135
:10553000722200F081F880BD80B540F2C400C2F64E
:10554000F67090F83310002918BF80BD90F8322013
:1055500040F20121A0F8331002F0F001826D80F8D2
:1055600032104FF00421C0F83610904780BD000083
:105570002DE9F041002804BF4FF0FF30BDE8F08175
:1055800040F2C404154606468846C2F6F6740F4635
:10559000228F002031462B46974298BF3A46FFF7AC
:1055A000B5FE002803D43F1A0644F1D10027A8EB2A
:1055B0000700BDE8F081000010B582B08DF8000052
:1055C0006846FEF749F948B140F2C400C2F6F670E9
:1055D000406D80474FF0FF3002B010BD9DF80000D5
:1055E00001280BD19DF801100F2907D89DF8040060
:1055F000BDF80210FFF7CEFD02B010BD9DF801C04E
:1056000040F2C40E0022C2F6F67E02E00132012A08
:10561000E0D10EEBC203196C0029F7D093F83C409F
:10562000A042F3D193F83D3083EA0C030F2BEDD861
:105630006846884702B010BD2DE9F04381B040F2C2
:10564000C409154688460646C2F6F6790C4600BFE0
:10565000B9F836703046BC42D8BF274639462A468C
:10566000FFF7A4FE28B9002E1CBF3E44E41B002C0B
:10567000EEDCA8EB040001B0BDE8F08348F2740052
:10568000C4F2060044F225110160704710B5FBF723
:10569000ABFE40F2C404C2F6F67494F82000012870
:1056A00018BF10BDFBF7ECFE002084F8200010BDF1
:1056B00080B500200021FBF7ADFE4FF4E130FBF791
:1056C00085FD80BD48F27000C4F2060044F2250159
:1056D00001607047F0B581B040F2C406C2F6F676BC
:1056E00096F8301000291EBF012001B0F0BD04461D
:1056F000FFF722FFECB1B4F1FF376D4618BF4FF052
:10570000FF3701E0E41914D0FDF7BAFDF36C284629
:105710000421012298470428F4D10098B0F1633F96
:10572000F0D1706D8047FFF7CFFDFFF7CDFDFFF79C
:10573000CBFD96F83000002818BF012001B0F0BD65
:10574000B0B500EB4000C500FFF7CCFC012DB8BFA1
:10575000B0BD0446FFF7C6FC291AA04298BF013429
:105760000D19002D0446F5DCB0BD000080B50B20FE
:10577000FCF772FF0B20FDF7B9F980BD40F2444001
:10578000C4F20500802101707047000040F6D0206F
:10579000C2F6F67000F1100113200E22C4F20500CB
:1057A00090F87530013A01F8013FF9D1017841F0E4
:1057B000020101707047000070B544F60035C2F672
:1057C000F675298840F200460446C4F2050699B9E8
:1057D000307840F08000307040F20140C4F20500A3
:1057E000017841F0040101704FF6A850CFF6FF7028
:1057F0002221315401202880204611210022FCF76B
:105800006BFF44F200314CF20410C2F6F671C4F2A0
:105810000100C160A6F55E7141608421C0F22201E1
:10582000446140F8041C01210160012100224FF471
:10583000FA7300F0DFF8FDF723FD28880130288097
:1058400070BD00002DE9F04740F2A818C4F2050829
:1058500098F85822814642F0800288F8582240F297
:105860000142C4F2050213780E4643F004000F25EE
:105870004CF2041410706FF35F263120C4F205055A
:10588000B1F5007FC4F2010488F800001DD340F296
:10589000FF1021EA00073846012101224FF0010ADA
:1058A000FCF71AFF05F17500E0604FF40440C4F8FE
:1058B0000490676144F8040C204601210022322341
:1058C000C4F800A000F096F8B944C6B130461121E2
:1058D00001220127FCF700FF05F17500E06048F2A6
:1058E0000040C0F22200C4F80490666144F8040C41
:1058F0002046012100223223276000F07BF843F686
:105900008000C0F2010001E0013805D02978890744
:10591000FAD429780907F7D5112088F80000FDF797
:10592000AFFCBDE8F0870000B0B540F6D020C2F66D
:10593000F670447C4069FFF73FFF44F20030C2F646
:10594000F67090E826002046FBF7B2F8854205D0B5
:1059500040F6A820C2F6F670FF218172FFF70EFF15
:10596000FBF7D6FFB0BD000080B582B09C46134661
:105970004FF48072CDF800C0FBF712FAB0FA80F055
:10598000400902B080BD0000B0B548F20C04C4F27A
:1059900003042168012818BF11F020010BD0851ED7
:1059A000FCF76AFE2068002D08BFB0BD10F0200093
:1059B000A5F10105F4D1B0BD2DE9F0411F46904697
:1059C0000D460646FFF796FB4FF47A7107FB01F48C
:1059D000074600BF30782840404504BF0020BDE89E
:1059E000F081FFF787FBC01BA04284BF0120BDE808
:1059F000F081EFE72DE9F0411F4690460D4606463F
:105A0000FFF778FB4FF47A7107FB01F4074600BFFC
:105A100030682840404504BF0020BDE8F081FFF712
:105A200069FBC01BA04284BF0120BDE8F081EFE705
:105A300080B540F6A820C2F6F67090F82110032930
:105A40004DD0092918BF80BD90F8221001294DD8EA
:105A5000417740F2064240F2A21140F2E31EC4F246
:105A6000050240234FF0000CC4F20501C4F2050EFC
:105A700002F8243C02F823CC02F8223C02F821CCA4
:105A800081F840308EF800C08EF801308EF802C0E8
:105A9000036002209071137843F00403137011F82F
:105AA0000A2C42F0010201F80A2C01220A7071222C
:105AB0000A7061220A7008707220087062200870F3
:105AC0004FF66C60CFF6FF708A220A544FF6706072
:105AD000CFF6FF708B220A54FDF768FB80BD90F86B
